:100000000C942A000C9447000C9447000C94470071
:100010000C9447000C9447000C9447000C94470044
:100020000C9447000C9494150C9447000C949C0E6F
:100030000C9447000C9447000C9447000C94470024
:100040000C9447000C9447000C9447000C94470014
:100050000C94470011241FBECFE5D8E0DEBFCDBF12
:1000600011E0A0E6B0E0E8EDFDE302C005900D92DE
:10007000A439B107D9F711E0A4E9B1E001C01D929C
:10008000AE3AB107E1F70E9425170C94EA1E0C94D2
:100090000000EF92FF920F931F937B018C0120E0F1
:1000A00030E040E05FE40E94250488238CF0C80122
:1000B000B70120E030E040E05FE40E94C1010E940F
:1000C000E3049B01AC01205030404040504806C042
:1000D000C801B7010E94E3049B01AC01B901CA0148
:1000E0001F910F91FF90EF900895A0E0B0E0EBE733
:1000F000F0E00C94B31EDC012B01FA019C919230CC
:1001000008F439C1EB018881823008F433C194309E
:1001100069F4843009F02FC111969C91119789815F
:10012000981709F428C1ACE8B0E025C1843009F47F
:1001300021C18230A9F4923009F01DC19A01AD01AC
:1001400088E0EA010990AE01E90109929E0181501F
:10015000C1F7E201898111969C918923818308C1AD
:10016000923009F407C112962D903C901397EB0141
:100170008A819B811496AD90BD90CD90DC901797AD
:10018000EC80FD800E811F819101281B390BB90184
:1001900037FF04C066277727621B730B6032710537
:1001A0000CF061C0121613066CF537014801062EDB
:1001B00004C096948794779467940A94D2F721E0C8
:1001C00030E040E050E004C0220F331F441F551FB1
:1001D0006A95D2F721503040404050402E213F21B7
:1001E00040235123211531054105510521F021E01E
:1001F00030E040E050E079018A01E628F72808293C
:1002000019293CC0232BD1F1260E371E350146019A
:10021000062E04C096948794779467940A94D2F734
:1002200021E030E040E050E004C0220F331F441FC3
:10023000551F6A95D2F721503040404050402A2146
:100240003B214C215D21211531054105510521F04E
:1002500021E030E040E050E059016A01A628B728CB
:10026000C828D9280BC0821593052CF01C01AA249C
:10027000BB24650103C0EE24FF24870111969C91E5
:10028000D20111968C91981709F445C0992339F041
:10029000A80197012A193B094C095D0906C0A6016E
:1002A00095012E193F09400B510B57FD08C01182D3
:1002B0003382228224833583468357831DC081E0A5
:1002C00081833382228288279927DC01821B930B4A
:1002D000A40BB50B84839583A683B7830DC0220F2F
:1002E000331F441F551F24833583468357838281E0
:1002F000938101979383828324813581468157813D
:10030000DA01C9010197A109B1098F5F9F4FAF4F72
:10031000BF4328F30BC0918333822282EA0CFB1C7B
:100320000C1D1D1DE482F5820683178383E0808304
:10033000248135814681578157FF1AC0C901AA27F8
:1003400097FDA095BA2F81709070A070B0705695EF
:10035000479537952795822B932BA42BB52B848318
:100360009583A683B7838281938101969383828349
:10037000DF0101C0D201CD01CDB7DEB7E2E10C94BF
:10038000CF1EA0E2B0E0E7ECF1E00C94BF1E698361
:100390007A838B839C832D833E834F835887E9E048
:1003A000EE2EF12CEC0EFD1ECE010196B7010E943F
:1003B000D4068E010F5E1F4FCE010596B8010E9434
:1003C000D4068A8991E089278A8BC701B801AE01DA
:1003D000475E5F4F0E9475000E94FF05A096E6E011
:1003E0000C94DB1EA0E2B0E0E8EFF1E00C94BF1E3D
:1003F00069837A838B839C832D833E834F835887C5
:10040000F9E0EF2EF12CEC0EFD1ECE010196B701A6
:100410000E94D4068E010F5E1F4FCE010596B801D3
:100420000E94D406C701B801AE01475E5F4F0E942B
:1004300075000E94FF05A096E6E00C94DB1EA0E28A
:10044000B0E0E5E2F2E00C94B31E69837A838B831B
:100450009C832D833E834F835887CE010196BE0136
:10046000675F7F4F0E94D406CE010596BE016F5E86
:100470007F4F0E94D4069985923088F08989823016
:10048000C8F0943019F4823051F404C0843029F457
:10049000923081F48CE890E0C6C0923049F420E0BC
:1004A0009A858A89981321E02A87CE010996BBC0D4
:1004B000823049F420E09A858A89981321E02A8BBA
:1004C000CE014196B0C02D843E844F8458886D88FB
:1004D0007E888F88988CEE24FF248701AA24BB2471
:1004E000650140E050E060E070E0E0E0F0E0C10174
:1004F00081709070892BE9F0E60CF71C081D191D1E
:100500009A01AB012A0D3B1D4C1D5D1D80E090E062
:10051000A0E0B0E0E614F7040805190520F481E036
:1005200090E0A0E0B0E0BA01A901480F591F6A1F8E
:100530007B1FAA0CBB1CCC1CDD1C97FE08C081E0F5
:1005400090E0A0E0B0E0A82AB92ACA2ADB2A3196B6
:10055000E032F10549F0660C771C881C991C569412
:10056000479437942794C3CFFA85EA892B893C892D
:100570008B859C85280F391F2E5F3F4F17C0CA01FE
:1005800081709070892B61F016950795F794E79428
:1005900080E090E0A0E0B0E8E82AF92A0A2B1B2BC3
:1005A00076956795579547952F5F3F4F77FDE7CF36
:1005B0000CC0440F551F661F771F17FD4160EE0CDE
:1005C000FF1C001F111F21503040403090E05907A0
:1005D00090E0690790E4790760F32B8F3C8FDB0193
:1005E000CA018F779070A070B07080349105A1051A
:1005F000B10561F447FD0AC0E114F10401051105DC
:1006000029F0405C5F4F6F4F7F4F40781A8EFE1786
:1006100011F081E08A8F4D8F5E8F6F8F78A383E01A
:10062000898FCE0149960E94FF05A096E2E10C94C5
:10063000CF1EA8E1B0E0EFE1F3E00C94BB1E6983AC
:100640007A838B839C832D833E834F835887B9E0C5
:10065000EB2EF12CEC0EFD1ECE010196B7010E948F
:10066000D4068E010F5E1F4FCE010596B8010E9481
:10067000D4062985223008F47EC03989323010F43E
:10068000B8017CC08A859A8989278A87243011F02D
:10069000223031F4231709F06EC06CE870E06EC0B0
:1006A000343039F41D861E861F86188A1C861B86E8
:1006B00004C0323021F484E08987B7015FC02B8504
:1006C0003C858B899C89281B390B3C872B87ED84C3
:1006D000FE840F851889AD88BE88CF88D88CEA142F
:1006E000FB040C051D0540F4EE0CFF1C001F111F40
:1006F000215030403C872B8720E030E040E050E044
:1007000080E090E0A0E0B0E460E070E0EA14FB0478
:100710000C051D0540F0282B392B4A2B5B2BEA18C2
:10072000FB080C091D09B695A79597958795EE0CC2
:10073000FF1C001F111F6F5F7F4F6F31710531F775
:10074000DA01C9018F779070A070B0708034910584
:10075000A105B10561F427FD0AC0E114F10401050A
:10076000110529F0205C3F4F4F4F5F4F20782D87B8
:100770003E874F87588BBE01675F7F4FCB010E943A
:10078000FF056896EAE00C94D71EA8E1B0E0EBEC18
:10079000F3E00C94BF1E69837A838B839C832D8343
:1007A0003E834F83588789E0E82EF12CEC0EFD1E26
:1007B000CE010196B7010E94D4068E010F5E1F4F35
:1007C000CE010596B8010E94D4068985823040F09A
:1007D0008989823028F0C701B8010E944C0701C006
:1007E00081E06896E6E00C94DB1EA8E1B0E0EBEF58
:1007F000F3E00C94BF1E69837A838B839C832D83E3
:100800003E834F83588789E0E82EF12CEC0EFD1EC5
:10081000CE010196B7010E94D4068E010F5E1F4FD4
:10082000CE010596B8010E94D4068985823040F039
:100830008989823028F0C701B8010E944C0701C0A5
:100840008FEF6896E6E00C94DB1EA8E1B0E0EBE2E7
:10085000F4E00C94BF1E69837A838B839C832D8381
:100860003E834F83588789E0E82EF12CEC0EFD1E65
:10087000CE010196B7010E94D4068E010F5E1F4F74
:10088000CE010596B8010E94D4068985823040F0D9
:100890008989823028F0C701B8010E944C0701C045
:1008A0008FEF6896E6E00C94DB1EA8E1B0E0EBE584
:1008B000F4E00C94BF1E69837A838B839C832D8321
:1008C0003E834F83588789E0E82EF12CEC0EFD1E05
:1008D000CE010196B7010E94D4068E010F5E1F4F14
:1008E000CE010596B8010E94D4068985823040F079
:1008F0008989823028F0C701B8010E944C0701C0E5
:1009000081E06896E6E00C94DB1EA8E0B0E0EBE83E
:10091000F4E00C94BC1E9B01AC0183E08983DA01F6
:10092000C9018827B7FD83959927AA27BB27B82E29
:10093000211531054105510519F482E089833AC03A
:100940008823A9F0203080E0380780E0480780E85D
:10095000580729F460E070E080E09FEC30C0EE249E
:10096000FF248701E21AF30A040B150B02C0790178
:100970008A018EE1C82ED12CDC82CB82ED82FE82F0
:100980000F831887C801B7010E94B0050197181698
:10099000190684F4082E04C0EE0CFF1C001F111F62
:1009A0000A94D2F7ED82FE820F831887C81AD90AFB
:1009B000DC82CB82BA82CE0101960E94FF05289686
:1009C000E9E00C94D81EACE0B0E0E9EEF4E00C9461
:1009D000C31E69837A838B839C83CE010196BE01FB
:1009E0006B5F7F4F0E94D4068D81823061F182302F
:1009F00050F1843021F48E81882351F12EC02F8153
:100A0000388537FD20C06E812F3131051CF06623FB
:100A1000F9F023C08EE190E0821B930B29853A8583
:100A20004B855C8504C056954795379527958A95E3
:100A3000D2F76623B1F050954095309521953F4F00
:100A40004F4F5F4F0EC020E030E040E050E009C063
:100A50002FEF3FEF4FEF5FE704C020E030E040E0D2
:100A600050E8B901CA012C96E2E00C94DF1EA8E020
:100A7000B0E0EDE3F5E00C94BB1E7B018C01611549
:100A800071058105910519F482E0898360C083E0D6
:100A900089838EE1C82ED12CDC82CB82ED82FE824E
:100AA0000F831887C801B7010E94B005FC01319778
:100AB000F7FF3BC0222733272E1B3F0B570168014E
:100AC000022E04C0D694C794B794A7940A94D2F780
:100AD00040E050E060E070E081E090E0A0E0B0E055
:100AE00004C0880F991FAA1FBB1F2A95D2F7019730
:100AF000A109B1098E219F21A023B1230097A1054F
:100B0000B10521F041E050E060E070E04A295B2946
:100B10006C297D294D835E836F8378878EE190E019
:100B20008E1B9F0B9C838B8312C0309781F00E2EFF
:100B300004C0EE0CFF1C001F111F0A94D2F7ED82B7
:100B4000FE820F831887CE1ADF0ADC82CB821A82DC
:100B5000CE0101960E94FF052896EAE00C94D71E6C
:100B6000EF92FF920F931F937B018C0180E0E816B8
:100B700080E0F80681E0080780E0180788F48FEF2E
:100B8000E816F1040105110531F028F088E090E045
:100B9000A0E0B0E017C080E090E0A0E0B0E012C0BC
:100BA00080E0E81680E0F80680E0080781E018079A
:100BB00028F088E190E0A0E0B0E004C080E190E09F
:100BC000A0E0B0E020E230E040E050E0281B390B2C
:100BD0004A0B5B0B04C016950795F794E7948A952A
:100BE000D2F7F701EC56FF4F8081281B31094109EC
:100BF0005109C9011F910F91FF90EF900895DF9265
:100C0000EF92FF920F931F93FC01E480F580068121
:100C10001781D1808081823048F480E090E0A0E1AB
:100C2000B0E0E82AF92A0A2B1B2BA5C0843009F46E
:100C30009FC0823021F4EE24FF24870105C0E11417
:100C4000F1040105110519F4E0E0F0E096C06281BD
:100C500073819FEF623879070CF05BC022E83FEFA9
:100C6000261B370B2A3131052CF020E030E040E024
:100C700050E02AC0B801A701022E04C076956795FE
:100C8000579547950A94D2F781E090E0A0E0B0E054
:100C900004C0880F991FAA1FBB1F2A95D2F701977E
:100CA000A109B1098E219F21A023B1230097A1059D
:100CB000B10521F081E090E0A0E0B0E09A01AB0145
:100CC000282B392B4A2B5B2BDA01C9018F779070C7
:100CD000A070B07080349105A105B10539F427FFEB
:100CE00009C0205C3F4F4F4F5F4F04C0215C3F4F16
:100CF0004F4F5F4FE0E0F0E02030A0E03A07A0E087
:100D00004A07A0E45A0710F0E1E0F0E079018A0117
:100D100027C06038710564F5FB01E158FF4FD80129
:100D2000C7018F779070A070B07080349105A105D5
:100D3000B10539F4E7FE0DC080E490E0A0E0B0E03A
:100D400004C08FE390E0A0E0B0E0E80EF91E0A1FB7
:100D50001B1F17FF05C016950795F794E79431966A
:100D600087E016950795F794E7948A95D1F705C023
:100D7000EE24FF248701EFEFF0E06E2F67956627E2
:100D80006795902F9F77D794DD24D7948E2F8695E3
:100D9000492F462B582F5D29B701CA011F910F918A
:100DA000FF90EF90DF900895FC01DB0140815181BD
:100DB0002281622F6F7770E0221F2227221F9381EA
:100DC000892F880F822B282F30E0991F9927991F90
:100DD00011969C93119721153105A9F541155105DF
:100DE0006105710511F482E037C082E89FEF139628
:100DF0009C938E9312979A01AB0167E0220F331FE9
:100E0000441F551F6A95D1F783E08C930DC0220FC4
:100E1000331F441F551F12968D919C911397019774
:100E200013969C938E931297203080E0380780E0D1
:100E3000480780E4580758F314962D933D934D933B
:100E40005C93179708952F3F310579F441155105AB
:100E50006105710519F484E08C93089564FF03C063
:100E600081E08C9312C01C9210C02F573040139613
:100E70003C932E93129783E08C9387E0440F551F89
:100E8000661F771F8A95D1F7706414964D935D9312
:100E90006D937C93179708951F93DC01FB019C9140
:100EA000923008F447C08081823008F443C0943007
:100EB00051F411961C91843099F58181682F70E06E
:100EC000611B71093FC0843021F0923031F48230CF
:100ED000B9F18181882389F12DC011961C91119758
:100EE0008230F1F081811817D9F412962D913C913E
:100EF0001397828193818217930794F028173907FB
:100F0000BCF014968D919D910D90BC91A02D2481E3
:100F1000358146815781281739074A075B0718F43E
:100F2000112341F00AC082179307A407B50740F4C4
:100F3000112319F061E070E005C06FEF7FEF02C090
:100F400060E070E0CB011F910895DF93CF93CDB7A0
:100F5000DEB72A970FB6F894DEBF0FBECDBF8B83E6
:100F60006C838B819AE0692F0E946A1E892F8A8385
:100F70008B819AE0692F0E946A1E89838C81282FB9
:100F800030E03A87298789859A85009739F0298545
:100F90003A852130310509F476C0E4C08981282FD3
:100FA00030E038872F838F8198858230910561F1F9
:100FB0002F8138852330310534F48F819885813035
:100FC000910569F0CFC02F8138852330310589F133
:100FD0008F8198858430910509F440C0C3C0AAE38D
:100FE000B0E0EAE3F0E08081482F8A81282F30E0EA
:100FF00081E090E0022E02C0880F991F0A94E2F768
:10100000809584238C93AEC0A7E3B0E0E7E3F0E0E3
:101010008081482F8A81282F30E081E090E0022EE5
:1010200002C0880F991F0A94E2F7809584238C935D
:1010300099C0A4E3B0E0E4E3F0E08081482F8A8126
:10104000282F30E081E090E0022E02C0880F991F27
:101050000A94E2F7809584238C9384C0A1E3B0E0E6
:10106000E1E3F0E08081482F8A81282F30E081E0A1
:1010700090E0022E02C0880F991F0A94E2F7809533
:1010800084238C936FC08981282F30E03E832D8389
:101090008D819E818230910551F12D813E812330D9
:1010A000310534F48D819E818130910561F05AC003
:1010B0002D813E812330310571F18D819E818430F7
:1010C0009105E9F14FC0AAE3B0E0EAE3F0E08081E6
:1010D000482F8A81282F30E081E090E0022E02C064
:1010E000880F991F0A94E2F7842B8C933BC0A7E3E7
:1010F000B0E0E7E3F0E08081482F8A81282F30E0DC
:1011000081E090E0022E02C0880F991F0A94E2F756
:10111000842B8C9327C0A4E3B0E0E4E3F0E080816B
:10112000482F8A81282F30E081E090E0022E02C013
:10113000880F991F0A94E2F7842B8C9313C0A1E3C4
:10114000B0E0E1E3F0E08081482F8A81282F30E091
:1011500081E090E0022E02C0880F991F0A94E2F706
:10116000842B8C932A960FB6F894DEBF0FBECDBFAA
:10117000CF91DF910895DF93CF93CDB7DEB72A9754
:101180000FB6F894DEBF0FBECDBF8B836C838B810F
:101190009AE0692F0E946A1E892F8A838B819AE0C8
:1011A000692F0E946A1E89838C81282F30E03A873C
:1011B000298789859A85009739F029853A852130D4
:1011C000310509F476C0E4C08981282F30E03887E2
:1011D0002F838F8198858230910561F12F81388529
:1011E0002330310534F48F8198858130910569F081
:1011F000CFC02F8138852330310589F18F819885C3
:101200008430910509F440C0C3C0ABE3B0E0EBE328
:10121000F0E08081482F8A81282F30E081E090E043
:10122000022E02C0880F991F0A94E2F7809584234A
:101230008C93AEC0A8E3B0E0E8E3F0E08081482FF3
:101240008A81282F30E081E090E0022E02C0880FD2
:10125000991F0A94E2F7809584238C9399C0A5E3A3
:10126000B0E0E5E3F0E08081482F8A81282F30E06C
:1012700081E090E0022E02C0880F991F0A94E2F7E5
:10128000809584238C9384C0A2E3B0E0E2E3F0E095
:101290008081482F8A81282F30E081E090E0022E63
:1012A00002C0880F991F0A94E2F7809584238C93DB
:1012B0006FC08981282F30E03E832D838D819E81F0
:1012C0008230910551F12D813E812330310534F476
:1012D0008D819E818130910561F05AC02D813E81C2
:1012E0002330310571F18D819E8184309105E9F1C2
:1012F0004FC0ABE3B0E0EBE3F0E08081482F8A81A0
:10130000282F30E081E090E0022E02C0880F991F64
:101310000A94E2F7842B8C933BC0A8E3B0E0E8E3A7
:10132000F0E08081482F8A81282F30E081E090E032
:10133000022E02C0880F991F0A94E2F7842B8C9327
:1013400027C0A5E3B0E0E5E3F0E08081482F8A8183
:10135000282F30E081E090E0022E02C0880F991F14
:101360000A94E2F7842B8C9313C0A2E3B0E0E2E38B
:10137000F0E08081482F8A81282F30E081E090E0E2
:10138000022E02C0880F991F0A94E2F7842B8C93D7
:101390002A960FB6F894DEBF0FBECDBFCF91DF9176
:1013A0000895DF93CF9300D000D00F92CDB7DEB772
:1013B0008B838B819AE0692F0E946A1E892F8A8312
:1013C0008B819AE0692F0E946A1E89838981282F68
:1013D00030E03D832C838C819D818230910551F1D9
:1013E0002C813D812330310534F48C819D81813005
:1013F000910561F05AC02C813D812330310571F196
:101400008C819D8184309105E9F14FC0ABE3B0E060
:10141000EBE3F0E08081482F8A81282F30E081E0E3
:1014200090E0022E02C0880F991F0A94E2F78427E9
:101430008C933BC0A8E3B0E0E8E3F0E08081482F64
:101440008A81282F30E081E090E0022E02C0880FD0
:10145000991F0A94E2F784278C9327C0A5E3B0E094
:10146000E5E3F0E08081482F8A81282F30E081E099
:1014700090E0022E02C0880F991F0A94E2F7842799
:101480008C9313C0A2E3B0E0E2E3F0E08081482F48
:101490008A81282F30E081E090E0022E02C0880F80
:1014A000991F0A94E2F784278C930F900F900F9066
:1014B0000F900F90CF91DF910895DF93CF9300D0DD
:1014C00000D000D0CDB7DEB78C838C819AE0692F35
:1014D0000E946A1E892F8B838C819AE0692F0E945B
:1014E0006A1E8A8319828A81282F30E03E832D83E9
:1014F0004D815E814230510541F18D819E81833065
:10150000910534F42D813E812130310561F052C0C6
:101510004D815E814330510551F18D819E81843032
:101520009105B9F147C0E9E3F0E08081282F30E070
:101530008B81882F90E0A90102C0559547958A9527
:10154000E2F7CA018170898335C0E6E3F0E080816B
:10155000282F30E08B81882F90E0A90102C055959B
:1015600047958A95E2F7CA018170898323C0E3E336
:10157000F0E08081282F30E08B81882F90E0A90156
:1015800002C0559547958A95E2F7CA018170898313
:1015900011C0E0E3F0E08081282F30E08B81882FBC
:1015A00090E0A90102C0559547958A95E2F7CA01D6
:1015B00081708983898126960FB6F894DEBF0FBEAD
:1015C000CDBFCF91DF910895DF93CF93CDB7DEB735
:1015D0002A970FB6F894DEBF0FBECDBF8B836C8306
:1015E0008B819AE0692F0E946A1E892F8A838B81E2
:1015F0009AE0692F0E946A1E89838C81282F30E02F
:101600003A87298789859A85009739F029853A850F
:101610002130310509F476C0E4C08981282F30E0FB
:1016200038872F838F8198858230910561F12F81D2
:1016300038852330310534F48F81988581309105C8
:1016400069F0CFC02F8138852330310589F18F8132
:1016500098858430910509F440C0C3C0ABE3B0E085
:10166000EBE3F0E08081482F8A81282F30E081E091
:1016700090E0022E02C0880F991F0A94E2F780952D
:1016800084238C93AEC0A8E3B0E0E8E3F0E080816F
:10169000482F8A81282F30E081E090E0022E02C09E
:1016A000880F991F0A94E2F7809584238C9399C040
:1016B000A5E3B0E0E5E3F0E08081482F8A81282FA0
:1016C00030E081E090E0022E02C0880F991F0A945A
:1016D000E2F7809584238C9384C0A2E3B0E0E2E338
:1016E000F0E08081482F8A81282F30E081E090E06F
:1016F000022E02C0880F991F0A94E2F78095842376
:101700008C936FC08981282F30E03E832D838D819B
:101710009E818230910551F12D813E81233031052A
:1017200034F48D819E818130910561F05AC02D8104
:101730003E812330310571F18D819E818430910588
:10174000E9F14FC0ABE3B0E0EBE3F0E08081482F7C
:101750008A81282F30E081E090E0022E02C0880FBD
:10176000991F0A94E2F7842B8C933BC0A8E3B0E066
:10177000E8E3F0E08081482F8A81282F30E081E083
:1017800090E0022E02C0880F991F0A94E2F7842B82
:101790008C9327C0A5E3B0E0E5E3F0E08081482F1B
:1017A0008A81282F30E081E090E0022E02C0880F6D
:1017B000991F0A94E2F7842B8C9313C0A2E3B0E044
:1017C000E2E3F0E08081482F8A81282F30E081E039
:1017D00090E0022E02C0880F991F0A94E2F7842B32
:1017E0008C932A960FB6F894DEBF0FBECDBFCF9173
:1017F000DF910895DF93CF930F92CDB7DEB7898342
:101800008981882F90E00097A9F4A3E5B0E0E3E593
:10181000F0E080818F7B8C93A3E5B0E0E3E5F0E01E
:101820008081877F8C93A9E5B0E0E9E5F0E08081D5
:1018300081608C930F90CF91DF910895DF93CF93C8
:10184000CDB7DEB72F970FB6F894DEBF0FBECDBF72
:101850008B874C875D876E877F8780E490E0A0E070
:10186000B0E08F839887A987BA878C859D85AE85E0
:10187000BF8528EE33E040E050E0BC01CD010E947E
:101880004B1EDC01CB012F81388549855A85BC016F
:10189000CD010E94761EDA01C9018B839C83AD8342
:1018A000BE838FEF8A838B85882F90E0009769F540
:1018B0008B819C81AD81BE81892F9A2FAB2FBB2755
:1018C0008093940190939501A0939601B093970112
:1018D0008B81898389818823C1F0E2E5F0E08981E9
:1018E000819580838091940190919501A0919601BA
:1018F000B09197010196A11DB11D80939401909321
:101900009501A0939601B09397012F960FB6F89486
:10191000DEBF0FBECDBFCF91DF910895DF93CF9390
:1019200000D00F92CDB7DEB789838981282F30E0B0
:101930003B832A838A819B81009731F02A813B81F6
:1019400021303105B9F02BC0A3E5B0E0E3E5F0E0CC
:10195000808181608C93A3E5B0E0E3E5F0E08081D5
:101960008D7F8C93A3E5B0E0E3E5F0E080818460B7
:101970008C9315C0AEE4B0E0EEE4F0E080818160CD
:101980008C93AEE4B0E0EEE4F0E080818D7F8C9348
:10199000AEE4B0E0EEE4F0E0808184608C930F90E0
:1019A0000F900F90CF91DF910895DF93CF9300D0E8
:1019B0000F92CDB7DEB789838981282F30E03B8332
:1019C0002A838A819B81009731F02A813B812130D3
:1019D0003105B9F02BC0A3E5B0E0E3E5F0E080818C
:1019E0008E7F8C93A3E5B0E0E3E5F0E080818D7F0E
:1019F0008C93A3E5B0E0E3E5F0E080818B7F8C93EE
:101A000015C0AEE4B0E0EEE4F0E080818E7F8C9310
:101A1000AEE4B0E0EEE4F0E080818D7F8C93AEE444
:101A2000B0E0EEE4F0E080818B7F8C930F900F901C
:101A30000F90CF91DF910895DF93CF9300D00F9255
:101A4000CDB7DEB789838981282F30E03B832A8395
:101A50008A819B81009731F02A813B8121303105B9
:101A600011F153C087E161E00E94A507A3E5B0E052
:101A7000E3E5F0E0808180648C93A3E5B0E0E3E5EA
:101A8000F0E0808188608C93A3E5B0E0E3E5F0E0CE
:101A900080818F7E8C93A3E5B0E0E3E5F0E0808168
:101AA00080628C9332C08DE261E00E94A5078CE2D7
:101AB00061E00E94A507AFE4B0E0EFE4F0E08081D0
:101AC0008E7F8C93AFE4B0E0EFE4F0E08081826041
:101AD0008C93AEE4B0E0EEE4F0E0808188608C931B
:101AE000AEE4B0E0EEE4F0E0808180618C93AFE49E
:101AF000B0E0EFE4F0E080818F7B8C93AFE4B0E066
:101B0000EFE4F0E0808180688C930F900F900F904D
:101B1000CF91DF9108950F931F93DF93CF93CDB7AC
:101B2000DEB727970FB6F894DEBF0FBECDBF89830F
:101B30004A835B836C837D838981282F30E03F83D8
:101B40002E838E819F81009731F0EE81FF81E130FD
:101B5000F105E1F171C06A817B818C819D8120E07A
:101B600030E040E050E00E94C503882321F4ECE51A
:101B7000F0E0108261C00CE510E06A817B818C810D
:101B80009D8120E030E040E853E40E941F02DC0128
:101B9000CB01BC01CD0120E030E048EC52E40E94D2
:101BA0001903DC01CB01BC01CD0120E030E040E8AD
:101BB0005FE30E94C101DC01CB01BC01CD010E94A9
:101BC0004900DC01CB01F801808336C00AE410E053
:101BD000E6E4F0E080819181CC01A0E0B0E0BC01BE
:101BE000CD010E943705DC01CB01BC01CD012A816A
:101BF0003B814C815D810E941F02DC01CB01BC0155
:101C0000CD0120E030E048EC52E40E941903DC01F1
:101C1000CB01BC01CD0120E030E040E85FE30E9451
:101C2000C101DC01CB01BC01CD010E944900DC01F6
:101C3000CB01F8019183808327960FB6F894DEBF1D
:101C40000FBECDBFCF91DF911F910F9108950F93DC
:101C50001F93DF93CF930F92CDB7DEB7898306E44E
:101C600010E08981282F30E040E050E084E294EFDA
:101C7000A0E0B0E0BC01CD010E94981EDA01C901CC
:101C8000F801918380830F90CF91DF911F910F9185
:101C90000895DF93CF930F92CDB7DEB78983898103
:101CA0000E948E0C0F90CF91DF910895DF93CF9318
:101CB0000F92CDB7DEB7898389810E94D50C0F9032
:101CC000CF91DF910895DF93CF9300D000D00F9292
:101CD000CDB7DEB789837B836A838981282F30E083
:101CE0003D832C838C819D818130910581F02C81F5
:101CF0003D812230310591F08C819D810097A1F4C6
:101D00008A819B819093A8018093A7010DC08A814D
:101D10009B819093A6018093A50106C08A819B8137
:101D20009093A4018093A3010F900F900F900F90B8
:101D30000F90CF91DF9108951F920F920FB60F92DF
:101D400011242F933F934F935F936F937F938F93C0
:101D50009F93AF93BF93EF93FF93DF93CF93CDB751
:101D6000DEB780919D0190919E01A0919F01B0915D
:101D7000A0010196A11DB11D80939D0190939E012C
:101D8000A0939F01B093A00120919D0130919E01ED
:101D900040919F015091A0018091940190919501F3
:101DA000A0919601B0919701281739074A075B0760
:101DB00099F4E091A701F091A8010995E2E5F0E01E
:101DC000809198018195808310929D0110929E01CF
:101DD00010929F011092A001CF91DF91FF91EF919E
:101DE000BF91AF919F918F917F916F915F914F9133
:101DF0003F912F910F900FBE0F901F901895DF937A
:101E0000CF93CDB7DEB783E261E00E94A50784E2FD
:101E100061E00E94A50781E261E00E94A50782E2DD
:101E200061E00E94A5078FE161E00E94A5078EE1B5
:101E300061E00E94A507CF91DF910895DF93CF93D2
:101E4000CDB7DEB783E260E00E94BB0884E261E0C8
:101E50000E94BB08CF91DF910895DF93CF93CDB758
:101E6000DEB781E260E00E94BB0882E261E00E948E
:101E7000BB08CF91DF910895DF93CF9300D00F92ED
:101E8000CDB7DEB789838981282F30E03B832A8351
:101E90008A819B81009731F02A813B812130310575
:101EA00051F011C083E260E00E94BB0884E261E06F
:101EB0000E94BB0808C083E261E00E94BB0884E284
:101EC00060E00E94BB080F900F900F90CF91DF91C0
:101ED0000895DF93CF9300D00F92CDB7DEB78983FB
:101EE0008981282F30E03B832A838A819B81009758
:101EF00031F02A813B812130310551F011C081E25E
:101F000060E00E94BB0882E261E00E94BB0808C05A
:101F100081E261E00E94BB0882E260E00E94BB08AF
:101F20000F900F900F90CF91DF910895DF93CF9393
:101F3000CDB7DEB78FE161E00E94BB088EE161E0C2
:101F40000E94BB08CF91DF910895DF93CF93CDB767
:101F5000DEB781E260E00E94BB0882E260E00E949E
:101F6000BB0883E260E00E94BB0884E260E00E945C
:101F7000BB08CF91DF910895DF93CF93CDB7DEB744
:101F800080E00E943C0F80E00E94690FCF91DF91BA
:101F90000895DF93CF93CDB7DEB781E00E943C0F69
:101FA00081E00E94690FCF91DF910895DF93CF9375
:101FB000CDB7DEB78EE061E00E94A5078FE061E05B
:101FC0000E94A50780E161E00E94A50781E161E030
:101FD0000E94A50785E161E00E94A50788E161E014
:101FE0000E94A50786E161E00E94A50786E160E006
:101FF0000E94BB0883E30E94071282E30E9407123B
:1020000088E20E9407128CE00E94071281E00E9481
:10201000071282E00E940712CF91DF910895DF93AB
:10202000CF93CDB7DEB7E9970FB6F894DEBF0FBEFA
:10203000CDBF89AF85E161E00E94BB0889AD829583
:102040008F700E94D31488E161E00E94BB0880E099
:1020500090E0A0E8BFE38DAB9EABAFABB8AF6DA98E
:102060007EA98FA998AD20E030E04AE755E40E94B0
:102070001F02DC01CB0189AB9AABABABBCAB69A94E
:102080007AA98BA99CA920E030E040E85FE30E9498
:10209000550488232CF481E090E098AB8FA73FC0D3
:1020A00069A97AA98BA99CA920E03FEF4FE757E4E3
:1020B0000E94F50318164CF56DA97EA98FA998AD5D
:1020C00020E030E040E251E40E941F02DC01CB013D
:1020D000BC01CD010E944900DC01CB0198AB8FA768
:1020E0000FC080E991E09EA78DA78DA59EA50197C1
:1020F000F1F79EA78DA78FA598A9019798AB8FA7F9
:102100008FA598A9009769F714C069A97AA98BA926
:102110009CA90E944900DC01CB0198AB8FA78FA539
:1021200098A99CA78BA78BA59CA50197F1F79CA7C5
:102130008BA788E160E00E94BB0880E090E0A0E807
:10214000BFE38FA398A7A9A7BAA76FA178A589A570
:102150009AA520E030E04AE755E40E941F02DC0126
:10216000CB018BA39CA3ADA3BEA36BA17CA18DA12E
:102170009EA120E030E040E85FE30E945504882300
:102180002CF481E090E09AA389A33FC06BA17CA1CD
:102190008DA19EA120E03FEF4FE757E40E94F50399
:1021A00018164CF56FA178A589A59AA520E030E016
:1021B00040E251E40E941F02DC01CB01BC01CD01D1
:1021C0000E944900DC01CB019AA389A30FC080E9DA
:1021D00091E098A38F8F8F8D98A10197F1F798A325
:1021E0008F8F89A19AA101979AA389A389A19AA106
:1021F000009769F714C06BA17CA18DA19EA10E94DC
:102200004900DC01CB019AA389A389A19AA19E8FE1
:102210008D8F8D8D9E8D0197F1F79E8F8D8F89AD5E
:102220000E94D31488E161E00E94BB0880E090E046
:10223000A0E8BFE3898F9A8FAB8FBC8F698D7A8DB1
:102240008B8D9C8D20E030E04AE755E40E941F0210
:10225000DC01CB018D8B9E8BAF8BB88F6D897E8916
:102260008F89988D20E030E040E85FE30E945504BC
:1022700088232CF481E090E09C8B8B8B3FC06D8990
:102280007E898F89988D20E03FEF4FE757E40E94C9
:10229000F50318164CF5698D7A8D8B8D9C8D20E099
:1022A00030E040E251E40E941F02DC01CB01BC019E
:1022B000CD010E944900DC01CB019C8B8B8B0FC0B0
:1022C00080E991E09A8B898B89899A890197F1F746
:1022D0009A8B898B8B899C8901979C8B8B8B8B89A3
:1022E0009C89009769F714C06D897E898F89988DC4
:1022F0000E944900DC01CB019C8B8B8B8B899C89D4
:10230000988B8F878F8598890197F1F7988B8F87A6
:1023100088E160E00E94BB0880E090E0A0E8BFE3B5
:102320008B879C87AD87BE876B857C858D859E85D9
:1023300020E030E04AE755E40E941F02DC01CB01B7
:102340008F839887A987BA876F81788589859A85D1
:1023500020E030E040E85FE30E94550488232CF43D
:1023600081E090E09E838D833FC06F817885898571
:102370009A8520E03FEF4FE757E40E94F5031816D7
:102380004CF56B857C858D859E8520E030E040E2B4
:1023900051E40E941F02DC01CB01BC01CD010E946F
:1023A0004900DC01CB019E838D830FC080E991E061
:1023B0009C838B838B819C810197F1F79C838B831A
:1023C0008D819E8101979E838D838D819E81009753
:1023D00069F714C06F81788589859A850E944900C4
:1023E000DC01CB019E838D838D819E819A838983BD
:1023F00089819A810197F1F79A838983E9960FB6CB
:10240000F894DEBF0FBECDBFCF91DF910895DF936B
:10241000CF93CDB7DEB7E9970FB6F894DEBF0FBE06
:10242000CDBF89AF85E160E00E94BB0889AD829590
:102430008F700E94D31488E161E00E94BB0880E0A5
:1024400090E0A0E8BFE38DAB9EABAFABB8AF6DA99A
:102450007EA98FA998AD20E030E04AE755E40E94BC
:102460001F02DC01CB0189AB9AABABABBCAB69A95A
:102470007AA98BA99CA920E030E040E85FE30E94A4
:10248000550488232CF481E090E098AB8FA73FC0DF
:1024900069A97AA98BA99CA920E03FEF4FE757E4EF
:1024A0000E94F50318164CF56DA97EA98FA998AD69
:1024B00020E030E040E251E40E941F02DC01CB0149
:1024C000BC01CD010E944900DC01CB0198AB8FA774
:1024D0000FC080E991E09EA78DA78DA59EA50197CD
:1024E000F1F79EA78DA78FA598A9019798AB8FA705
:1024F0008FA598A9009769F714C069A97AA98BA933
:102500009CA90E944900DC01CB0198AB8FA78FA545
:1025100098A99CA78BA78BA59CA50197F1F79CA7D1
:102520008BA788E160E00E94BB0880E090E0A0E813
:10253000BFE38FA398A7A9A7BAA76FA178A589A57C
:102540009AA520E030E04AE755E40E941F02DC0132
:10255000CB018BA39CA3ADA3BEA36BA17CA18DA13A
:102560009EA120E030E040E85FE30E94550488230C
:102570002CF481E090E09AA389A33FC06BA17CA1D9
:102580008DA19EA120E03FEF4FE757E40E94F503A5
:1025900018164CF56FA178A589A59AA520E030E022
:1025A00040E251E40E941F02DC01CB01BC01CD01DD
:1025B0000E944900DC01CB019AA389A30FC080E9E6
:1025C00091E098A38F8F8F8D98A10197F1F798A331
:1025D0008F8F89A19AA101979AA389A389A19AA112
:1025E000009769F714C06BA17CA18DA19EA10E94E8
:1025F0004900DC01CB019AA389A389A19AA19E8FEE
:102600008D8F8D8D9E8D0197F1F79E8F8D8F89AD6A
:102610000E94D31488E161E00E94BB0880E090E052
:10262000A0E8BFE3898F9A8FAB8FBC8F698D7A8DBD
:102630008B8D9C8D20E030E04AE755E40E941F021C
:10264000DC01CB018D8B9E8BAF8BB88F6D897E8922
:102650008F89988D20E030E040E85FE30E945504C8
:1026600088232CF481E090E09C8B8B8B3FC06D899C
:102670007E898F89988D20E03FEF4FE757E40E94D5
:10268000F50318164CF5698D7A8D8B8D9C8D20E0A5
:1026900030E040E251E40E941F02DC01CB01BC01AA
:1026A000CD010E944900DC01CB019C8B8B8B0FC0BC
:1026B00080E991E09A8B898B89899A890197F1F752
:1026C0009A8B898B8B899C8901979C8B8B8B8B89AF
:1026D0009C89009769F714C06D897E898F89988DD0
:1026E0000E944900DC01CB019C8B8B8B8B899C89E0
:1026F000988B8F878F8598890197F1F7988B8F87B3
:1027000088E160E00E94BB0880E090E0A0E8BFE3C1
:102710008B879C87AD87BE876B857C858D859E85E5
:1027200020E030E04AE755E40E941F02DC01CB01C3
:102730008F839887A987BA876F81788589859A85DD
:1027400020E030E040E85FE30E94550488232CF449
:1027500081E090E09E838D833FC06F81788589857D
:102760009A8520E03FEF4FE757E40E94F5031816E3
:102770004CF56B857C858D859E8520E030E040E2C0
:1027800051E40E941F02DC01CB01BC01CD010E947B
:102790004900DC01CB019E838D830FC080E991E06D
:1027A0009C838B838B819C810197F1F79C838B8326
:1027B0008D819E8101979E838D838D819E8100975F
:1027C00069F714C06F81788589859A850E944900D0
:1027D000DC01CB019E838D838D819E819A838983C9
:1027E00089819A810197F1F79A838983E9960FB6D7
:1027F000F894DEBF0FBECDBFCF91DF910895DF9378
:10280000CF9300D00F92CDB7DEB79B838A83198216
:102810000EC08981282F30E08A819B81FC01E20F64
:10282000F31F80810E940F1089818F5F89838981C6
:10283000282F30E08A819B81FC01E20FF31F808109
:10284000882339F70F900F900F90CF91DF91089563
:102850000F931F93DF93CF93CDB7DEB765970FB676
:10286000F894DEBF0FBECDBF6A8B7B8B8C8B9D8BAC
:102870008FEF89838A899B89AC89BD89BB2394F4B6
:102880008A899B89AC89BD89B095A09590958195E1
:102890009F4FAF4FBF4F8A8B9B8BAC8BBD8B8DE215
:1028A0000E940F1089818F5F89838981082F1127EA
:1028B00007FD10958A899B89AC89BD892AE030E0A3
:1028C00040E050E0BC01CD010E94981EDC01CB012C
:1028D000282FCE010296FC01E00FF11F20838A8988
:1028E0009B89AC89BD892AE030E040E050E0BC0122
:1028F000CD010E94981EDA01C9018A8B9B8BAC8B9B
:10290000BD8B8A899B89AC89BD890097A105B105DA
:1029100049F611C08981282F332727FD3095CE0134
:102920000296FC01E20FF31F8081805D0E940F1070
:102930008981815089838981882364F765960FB6E0
:10294000F894DEBF0FBECDBFCF91DF911F910F91E5
:102950000895DF93CF9300D000D0CDB7DEB78B833F
:102960006C8380E8898380EC8A838B81282F30E018
:10297000CE010196FC01E20FF31F90818C81890F3B
:102980000E9407120F900F900F900F90CF91DF9140
:102990000895DF93CF93CDB7DEB781E00E94071291
:1029A000CF91DF910895DF93CF930F92CDB7DEB72C
:1029B00089838981982F91708EE0692F0E94BB08CE
:1029C00089818695982F91708FE0692F0E94BB08AE
:1029D000898186958695982F917080E1692F0E9454
:1029E000BB088981869586958695982F917081E19F
:1029F000692F0E94BB080F90CF91DF910895DF935C
:102A0000CF93CDB7DEB787E161E00E94A50780E0F4
:102A10000E941C0D82E30E94270ECF91DF91089542
:102A2000DF93CF9300D000D000D0CDB7DEB79E8328
:102A30008D838D819E81AA2797FDA095BA2FBC0119
:102A4000CD010E948504DC01CB01BC01CD0120E059
:102A500030E040EA50E40E941F02DC01CB01BC01DF
:102A6000CD0120E030E044E353E40E941903DC018F
:102A7000CB01BC01CD0120E030E040EA50E40E94EF
:102A8000F201DC01CB0189839A83AB83BC8329816A
:102A90003A814B815C8180E0BA01A9010E948B0DD3
:102AA00026960FB6F894DEBF0FBECDBFCF91DF9153
:102AB0000895DF93CF93CDB7DEB780E00E94490E33
:102AC000CF91DF910895DF93CF93CDB7DEB780E04C
:102AD0000E94560ECF91DF910895DF93CF93CDB72B
:102AE000DEB78AE590E00E9410150E945915CF913B
:102AF000DF910895DF93CF93CDB7DEB78CE291E0FD
:102B00000E9410150E945915CF91DF910895DF930F
:102B1000CF93CDB7DEB786EA9FEF0E9410150E94D3
:102B20005915CF91DF9108951F920F920FB60F9212
:102B300011248F939F93DF93CF93CDB7DEB780910E
:102B4000A1019091A20101969093A2018093A1010D
:102B5000CF91DF919F918F910F900FBE0F901F909B
:102B60001895EF92FF920F931F93DF93CF93CDB7FA
:102B7000DEB768970FB6F894DEBF0FBECDBF8AE010
:102B800061E00E94A507E2E3F0E08FEF8083789494
:102B9000E9E5F0E084E08083EFE4F0E01082ABE36D
:102BA000B0E0EBE3F0E0808181608C9380E090E026
:102BB000A0E2B1E48D8B9E8BAF8BB88F6D897E893F
:102BC0008F89988D2BEA3AEA4AEA50E40E941F0264
:102BD000DC01CB01898B9A8BAB8BBC8B69897A89A1
:102BE0008B899C8920E030E040E85FE30E94550437
:102BF00088231CF481E0888B91C069897A898B894C
:102C00009C8920E030E04FE753E40E94F50318165A
:102C10000CF07BC06D897E898F89988D20E030E033
:102C20004AE754E40E941903DC01CB018C879D879D
:102C3000AE87BF876C857D858E859F8520E030E0DF
:102C40004AE755E40E941F02DC01CB01888799877F
:102C5000AA87BB87688579858A859B8520E030E0D7
:102C600040E85FE30E94550488232CF481E090E063
:102C70009F838E833FC0688579858A859B8520E008
:102C80003FEF4FE757E40E94F50318164CF56C85AB
:102C90007D858E859F8520E030E040E251E40E94F2
:102CA0001F02DC01CB01BC01CD010E944900DC0107
:102CB000CB019F838E830FC080E991E09D838C833D
:102CC0008C819D810197F1F79D838C838E819F81FB
:102CD00001979F838E838E819F81009769F724C01F
:102CE000688579858A859B850E944900DC01CB0136
:102CF0009F838E838E819F819B838A838A819B8120
:102D00000197F1F79B838A830FC069897A898B8940
:102D10009C890E944900DC01CB01888B88898983CA
:102D200089818A95F1F78983ABE3B0E0EBE3F0E0CA
:102D300080818E7F8C93ECE4F0E011821082EEE4CF
:102D4000F0E081E48083E8E5F0E080E28083E8E57C
:102D5000F0E084E08083E8E5F0E08081882F90E077
:102D6000807290700097B9F3ECE4F0E01182108269
:102D7000EEE4F0E081E08083E8E5F0E080E280834B
:102D8000E8E5F0E084E080831092A2011092A101B6
:102D9000E8E5F0E08081882F90E0807290700097E5
:102DA000B9F3E6E4F0E0808191817C0100E010E07D
:102DB0008091A1019091A201AA2797FDA095BA2F19
:102DC0002FEF3FEF40E050E0BC01CD010E944B1ED1
:102DD000DC01CB018E0D9F1DA01FB11F8093AA01A6
:102DE0009093AB01A093AC01B093AD018091AA0187
:102DF0009091AB01A091AC01B091AD01BC01CD01AE
:102E00000E948504DC01CB01BC01CD0120E030E053
:102E100044E652E40E941903DC01CB01BC01CD0160
:102E20000E944900DC01CB018093A9018091A90196
:102E300068960FB6F894DEBF0FBECDBFCF91DF917D
:102E40001F910F91FF90EF9008950F931F93DF93C1
:102E5000CF93CDB7DEB7CD59D0400FB6F894DEBFD3
:102E60000FBECDBF0E94FF140E94FF0E0E946D1581
:102E70000E94D60F0E94BC0F0E94960F0E94B115AF
:102E8000FE01E356FF4F8083FEC60E94A50F0E94FD
:102E9000FF140E9487150E94591580E690E00E9459
:102EA000FF13FE01E956FF4F80E090E0AAE7B4E48B
:102EB00080839183A283B3838E010D561F4FFE0141
:102EC000E956FF4F608171818281938120E030E07B
:102ED0004AE755E40E941F02DC01CB01F801808320
:102EE0009183A283B383FE01ED56FF4F6081718110
:102EF0008281938120E030E040E85FE30E94550446
:102F0000882344F4FE01EF56FF4F81E090E0918367
:102F1000808364C0FE01ED56FF4F60817181828124
:102F2000938120E03FEF4FE757E40E94F503181626
:102F30000CF043C0FE01E956FF4F60817181828130
:102F4000938120E030E040E251E40E941F02DC0166
:102F5000CB018E010F561F4FBC01CD010E944900CD
:102F6000DC01CB01F801918380831FC0FE01E15792
:102F7000FF4F80E991E091838083FE01E157FF4F8D
:102F8000808191810197F1F7FE01E157FF4F918315
:102F90008083DE01AF56BF4FFE01EF56FF4F8081A9
:102FA0009181019711969C938E93FE01EF56FF4FEE
:102FB000808191810097D1F627C08E010F561F4F57
:102FC000FE01ED56FF4F60817181828193810E94E5
:102FD0004900DC01CB01F80191838083DE01A35716
:102FE000BF4FFE01EF56FF4F808191818D939C93DF
:102FF000FE01E357FF4F808191810197F1F7FE01B8
:10300000E357FF4F918380830E94C914FE01E75765
:10301000FF4F80E090E4ACE1B6E480839183A2832B
:10302000B3838E010B571F4FFE01E757FF4F60819F
:1030300071818281938120E030E04AE755E40E946B
:103040001F02DC01CB01F80180839183A283B3834B
:10305000FE01EB57FF4F608171818281938120E0F7
:1030600030E040E85FE30E945504882344F4FE0109
:10307000ED57FF4F81E090E09183808364C0FE01B3
:10308000EB57FF4F608171818281938120E03FEF98
:103090004FE757E40E94F50318160CF043C0FE01F9
:1030A000E757FF4F608171818281938120E030E09A
:1030B00040E251E40E941F02DC01CB018E010D575A
:1030C0001F4FBC01CD010E944900DC01CB01F8017A
:1030D000918380831FC0FE01EF57FF4F80E991E08D
:1030E00091838083FE01EF57FF4F8081918101978B
:1030F000F1F7FE01EF57FF4F91838083DE01AD575B
:10310000BF4FFE01ED57FF4F8081918101971196CE
:103110009C938E93FE01ED57FF4F80819181009724
:10312000D1F627C08E010D571F4FFE01EB57FF4F01
:1031300060817181828193810E944900DC01CB0111
:10314000F80191838083DE01A158BF4FFE01ED5746
:10315000FF4F808191818D939C93FE01E158FF4F39
:10316000808191810197F1F7FE01E158FF4F918332
:1031700080830E94B115FE01E456FF4F8083FE015B
:10318000E456FF4F8081882F90E0A0E0B0E0BC01C2
:10319000CD010E942814FE01E558FF4F80E090E029
:1031A000AAE7B4E480839183A283B3838E01095894
:1031B0001F4FFE01E558FF4F60817181828193812D
:1031C00020E030E04AE755E40E941F02DC01CB0119
:1031D000F80180839183A283B383FE01E958FF4FF6
:1031E000608171818281938120E030E040E85FE37B
:1031F0000E945504882344F4FE01EB58FF4F81E000
:1032000090E09183808364C0FE01E958FF4F6081A4
:1032100071818281938120E03FEF4FE757E40E9464
:10322000F50318160CF043C0FE01E558FF4F60810E
:1032300071818281938120E030E040E251E40E947C
:103240001F02DC01CB018E010B581F4FBC01CD01C9
:103250000E944900DC01CB01F801918380831FC0EB
:10326000FE01ED58FF4F80E991E091838083FE01DC
:10327000ED58FF4F808191810197F1F7FE01ED58E4
:10328000FF4F91838083DE01AB58BF4FFE01EB58A7
:10329000FF4F80819181019711969C938E93FE013F
:1032A000EB58FF4F808191810097D1F627C08E01A6
:1032B0000B581F4FFE01E958FF4F608171818281D9
:1032C00093810E944900DC01CB01F8019183808346
:1032D000DE01AF58BF4FFE01EB58FF4F8081918157
:1032E0008D939C93FE01EF58FF4F80819181019750
:1032F000F1F7FE01EF58FF4F918380830E94C914BC
:103300008CE690E00E94FF13FE01E359FF4F80E03E
:1033100090E0AAE7B4E480839183A283B3838E0113
:1033200007591F4FFE01E359FF4F60817181828170
:10333000938120E030E04AE755E40E941F02DC015F
:10334000CB01F80180839183A283B383FE01E75907
:10335000FF4F608171818281938120E030E040E8FD
:103360005FE30E945504882344F4FE01E959FF4FAE
:1033700081E090E09183808364C0FE01E759FF4FB4
:10338000608171818281938120E03FEF4FE757E4B4
:103390000E94F50318160CF043C0FE01E359FF4FDD
:1033A000608171818281938120E030E040E251E4CC
:1033B0000E941F02DC01CB018E0109591F4FBC0185
:1033C000CD010E944900DC01CB01F801918380838B
:1033D0001FC0FE01EB59FF4F80E991E0918380838C
:1033E000FE01EB59FF4F808191810197F1F7FE01BA
:1033F000EB59FF4F91838083DE01A959BF4FFE0136
:10340000E959FF4F80819181019711969C938E938A
:10341000FE01E959FF4F808191810097D1F627C0C5
:103420008E0109591F4FFE01E759FF4F60817181DD
:10343000828193810E944900DC01CB01F8019183D4
:103440008083DE01AD59BF4FFE01E959FF4F8081F6
:1034500091818D939C93FE01ED59FF4F8081918165
:103460000197F1F7FE01ED59FF4F918380830E9490
:10347000C914FE01E15AFF4F80E090E4ACE1B6E4EC
:1034800080839183A283B3838E01055A1F4FFE016F
:10349000E15AFF4F608171818281938120E030E0A9
:1034A0004AE755E40E941F02DC01CB01F80180834A
:1034B0009183A283B383FE01E55AFF4F608171813E
:1034C0008281938120E030E040E85FE30E94550470
:1034D000882344F4FE01E75AFF4F81E090E0918396
:1034E000808364C0FE01E55AFF4F60817181828153
:1034F000938120E03FEF4FE757E40E94F503181651
:103500000CF043C0FE01E15AFF4F6081718182815E
:10351000938120E030E040E251E40E941F02DC0190
:10352000CB018E01075A1F4FBC01CD010E944900FB
:10353000DC01CB01F801918380831FC0FE01E95AB1
:10354000FF4F80E991E091838083FE01E95AFF4FAC
:10355000808191810197F1F7FE01E95AFF4F918334
:103560008083DE01A75ABF4FFE01E75AFF4F8081DB
:103570009181019711969C938E93FE01E75AFF4F1C
:10358000808191810097D1F627C08E01075A1F4F85
:10359000FE01E55AFF4F60817181828193810E9413
:1035A0004900DC01CB01F80191838083DE01AB5A35
:1035B000BF4FFE01E75AFF4F808191818D939C930D
:1035C000FE01EB5AFF4F808191810197F1F7FE01D7
:1035D000EB5AFF4F918380830E94B115FE01E5569F
:1035E000FF4F8083FE01E556FF4F8081882F90E0DA
:1035F000A0E0B0E0BC01CD010E942814FE01EF5A0A
:10360000FF4F80E090E0AAE7B4E480839183A28337
:10361000B3838E01035B1F4FFE01EF5AFF4F6081A2
:1036200071818281938120E030E04AE755E40E9475
:103630001F02DC01CB01F80180839183A283B38355
:10364000FE01E35BFF4F608171818281938120E005
:1036500030E040E85FE30E945504882344F4FE0113
:10366000E55BFF4F81E090E09183808364C0FE01C1
:10367000E35BFF4F608171818281938120E03FEFA6
:103680004FE757E40E94F50318160CF043C0FE0103
:10369000EF5AFF4F608171818281938120E030E099
:1036A00040E251E40E941F02DC01CB018E01055B68
:1036B0001F4FBC01CD010E944900DC01CB01F80184
:1036C000918380831FC0FE01E75BFF4F80E991E09B
:1036D00091838083FE01E75BFF4F80819181019799
:1036E000F1F7FE01E75BFF4F91838083DE01A55B6D
:1036F000BF4FFE01E55BFF4F8081918101971196DD
:103700009C938E93FE01E55BFF4F80819181009732
:10371000D1F627C08E01055B1F4FFE01E35BFF4F13
:1037200060817181828193810E944900DC01CB011B
:10373000F80191838083DE01A95BBF4FFE01E55B49
:10374000FF4F808191818D939C93FE01E95BFF4F38
:10375000808191810197F1F7FE01E95BFF4F918331
:1037600080830E94C9140E946D150E945915FE01A4
:10377000ED5BFF4F80E090E4ACE1B6E480839183A1
:10378000A283B3838E01015C1F4FFE01ED5BFF4FEF
:10379000608171818281938120E030E04AE755E4C5
:1037A0000E941F02DC01CB01F80180839183A28378
:1037B000B383FE01FF96608171818281938120E055
:1037C00030E040E85FE30E94550488232CF481E058
:1037D00090E09EAF8DAF46C0FE01FF966081718183
:1037E0008281938120E03FEF4FE757E40E94F50389
:1037F000181664F5FE01ED5BFF4F608171818281D7
:10380000938120E030E040E251E40E941F02DC019D
:10381000CB01BC01CD010E944900DC01CB019EAF70
:103820008DAF0FC080E991E09CAF8BAF8BAD9CADAD
:103830000197F1F79CAF8BAF8DAD9EAD01979EAF19
:103840008DAF8DAD9EAD009769F716C0FE01FF9656
:1038500060817181828193810E944900DC01CB01EA
:103860009EAF8DAF8DAD9EAD9AAF89AF89AD9AAD4C
:103870000197F1F79AAF89AFFE01E456FF4FDE01E1
:10388000A556BF4F90818C91891708F0FEC0DE01CC
:10389000A356BF4FFE01E456FF4F80818C93FE017B
:1038A000E356FF4F8081853108F4EDC10E942D0F52
:1038B00080E090E0AAE7B4E48DAB9EABAFABB8AFCD
:1038C0006DA97EA98FA998AD20E030E04AE755E4C4
:1038D0000E941F02DC01CB0189AB9AABABABBCAB46
:1038E00069A97AA98BA99CA920E030E040E85FE3B0
:1038F0000E94550488232CF481E090E098AB8FA7B8
:103900003FC069A97AA98BA99CA920E03FEF4FE7A6
:1039100057E40E94F50318164CF56DA97EA98FA9EE
:1039200098AD20E030E040E251E40E941F02DC014B
:10393000CB01BC01CD010E944900DC01CB0198AB59
:103940008FA70FC080E991E09EA78DA78DA59EA5AA
:103950000197F1F79EA78DA78FA598A9019798AB1E
:103960008FA78FA598A9009769F714C069A97AA9AC
:103970008BA99CA90E944900DC01CB0198AB8FA7C1
:103980008FA598A99CA78BA78BA59CA50197F1F75C
:103990009CA78BA70E94BC0F87E790E00E94FF13B3
:1039A00080E090E4ACE1B6E48FA398A7A9A7BAA7FA
:1039B0006FA178A589A59AA520E030E04AE755E4F3
:1039C0000E941F02DC01CB018BA39CA3ADA3BEA36D
:1039D0006BA17CA18DA19EA120E030E040E85FE3D7
:1039E0000E94550488232CF481E090E09AA389A3D7
:1039F0003FC06BA17CA18DA19EA120E03FEF4FE7CE
:103A000057E40E94F50318164CF56FA178A589A517
:103A10009AA520E030E040E251E40E941F02DC0160
:103A2000CB01BC01CD010E944900DC01CB019AA36E
:103A300089A30FC080E991E098A38F8F8F8D98A103
:103A40000197F1F798A38F8F89A19AA101979AA363
:103A500089A389A19AA1009769F714C06BA17CA1E1
:103A60008DA19EA10E944900DC01CB019AA389A3EC
:103A700089A19AA19E8F8D8F8D8D9E8D0197F1F7D3
:103A80009E8F8D8F0E94C914F1C9DE01A356BF4FCE
:103A9000FE01E556FF4F80818C93FE01E356FF4FF8
:103AA0008081853108F4EFC00E941E0F80E090E015
:103AB000AAE7B4E4898F9A8FAB8FBC8F698D7A8D1A
:103AC0008B8D9C8D20E030E04AE755E40E941F0278
:103AD000DC01CB018D8B9E8BAF8BB88F6D897E897E
:103AE0008F89988D20E030E040E85FE30E94550424
:103AF00088232CF481E090E09C8B8B8B3FC06D89F8
:103B00007E898F89988D20E03FEF4FE757E40E9430
:103B1000F50318164CF5698D7A8D8B8D9C8D20E000
:103B200030E040E251E40E941F02DC01CB01BC0105
:103B3000CD010E944900DC01CB019C8B8B8B0FC017
:103B400080E991E09A8B898B89899A890197F1F7AD
:103B50009A8B898B8B899C8901979C8B8B8B8B890A
:103B60009C89009769F714C06D897E898F89988D2B
:103B70000E944900DC01CB019C8B8B8B8B899C893B
:103B8000988B8F878F8598890197F1F7988B8F870E
:103B90000E94BC0F82E890E00E94FF1380E090E456
:103BA000ACE1B6E48B879C87AD87BE876B857C854F
:103BB0008D859E8520E030E04AE755E40E941F0293
:103BC000DC01CB018F839887A987BA876F817885BD
:103BD00089859A8520E030E040E85FE30E94550443
:103BE00088232CF481E090E09E838D833FC06F8119
:103BF000788589859A8520E03FEF4FE757E40E945A
:103C0000F50318164CF56B857C858D859E8520E027
:103C100030E040E251E40E941F02DC01CB01BC0114
:103C2000CD010E944900DC01CB019E838D830FC032
:103C300080E991E09C838B838B819C810197F1F7D4
:103C40009C838B838D819E8101979E838D838D8143
:103C50009E81009769F714C06F81788589859A8560
:103C60000E944900DC01CB019E838D838D819E8162
:103C70009A83898389819A810197F1F79A8389834D
:103C80000E94C914F3C8FE01E356FF4F80818431BE
:103C900008F4FBC8EBC8629FD001739FF001829FBC
:103CA000E00DF11D649FE00DF11D929FF00D839FCB
:103CB000F00D749FF00D659FF00D9927729FB00D68
:103CC000E11DF91F639FB00DE11DF91FBD01CF017B
:103CD00011240895991B79E004C0991F961708F0E4
:103CE000961B881F7A95C9F780950895A1E21A2E30
:103CF000AA1BBB1BFD010DC0AA1FBB1FEE1FFF1F90
:103D0000A217B307E407F50720F0A21BB30BE40BDF
:103D1000F50B661F771F881F991F1A9469F7609526
:103D20007095809590959B01AC01BD01CF010895E0
:103D300097FB092E05260ED057FD04D0D7DF0AD0F9
:103D4000001C38F450954095309521953F4F4F4FCA
:103D50005F4F0895F6F790958095709561957F4F28
:103D60008F4F9F4F08952F923F924F925F926F9285
:103D70007F928F929F92AF92BF92CF92DF92EF92FB
:103D8000FF920F931F93CF93DF93CDB7DEB7CA1B7C
:103D9000DB0B0FB6F894DEBF0FBECDBF09942A88A7
:103DA000398848885F846E847D848C849B84AA844F
:103DB000B984C884DF80EE80FD800C811B81AA81DC
:103DC000B981CE0FD11D0FB6F894DEBF0FBECDBFA7
:083DD000ED010895F894FFCF06
:103DD800536572766F2072696768740053657276EE
:103DE8006F206C6566740043617220207269676891
:103DF800740043617274206C6566740000000000F2
:103E08000000000000010202030303030404040489
:103E1800040404040505050505050505050505054E
:103E2800050505050606060606060606060606062E
:103E3800060606060606060606060606060606061A
:103E480006060606070707070707070707070707FE
:103E580007070707070707070707070707070707EA
:103E680007070707070707070707070707070707DA
:103E780007070707070707070707070707070707CA
:103E880007070707080808080808080808080808AE
:103E9800080808080808080808080808080808089A
:103EA800080808080808080808080808080808088A
:103EB800080808080808080808080808080808087A
:103EC800080808080808080808080808080808086A
:103ED800080808080808080808080808080808085A
:103EE800080808080808080808080808080808084A
:103EF800080808080808080808080808080808083A
:043F08000808080895
:00000001FF
